:1000000062C1000091C100008FC100008DC10000DD
:100010008BC1000089C1000087C1000085C10000BC
:1000200083C100000C94EB0A0C94EB0A0C94EB0ACD
:100030007BC1000079C1000077C1000075C10000DC
:100040000C940A2C0C94C2286FC100006DC10000F2
:100050000C94A12C69C1000067C100000C94E4104D
:1000600063C100000C94830E0C94B90E5DC10000B6
:100070005BC1000059C1000057C100000C940A2C5C
:100080000C94EE2851C100004FC100000C94A12C2B
:100090004BC1000049C1000047C1000045C100003C
:1000A00043C100000C940A2C0C941A293DC1000095
:1000B0003BC100000C94A12C0C940A2C0C944629F2
:1000C00033C1000031C100000C94A12C2DC10000EF
:1000D0002BC1000029C100000C94180F0C944E0F86
:1000E00023C100009905BD04D304EF040B052105CD
:1000F0003D05590575059008F509F109F5095908F7
:100100001D0933096D08A308F509C808F509F509A3
:10011000F509F509F509D908EA08F509B509EB0962
:10012000F1094B09F509F509F509F509F509F5098D
:10013000F509F509F509F509F509F509F509F509CF
:10014000F509F509F509F509F509F509F509F509BF
:10015000F509F509F509F509F509F509B509EB09F9
:10016000480979094612491238123C12421280128B
:100170004D12511257125B125F12651269126D1205
:100180008012731277127B1200000A0B02090C0D09
:100190000E0807030401000000000000000000003A
:1001A000000000000000000000000000000000004F
:1001B000000000001211100000000000000000000C
:1001C000000000000000000000000000000001022C
:1001D0001020200808102040102040800201020159
:1001E0000804020101020408102040808040201011
:1001F000080402018004020180402010080402016A
:1002000008040201010204081020408001020408D1
:1002100010204080050505050705080808080202AA
:1002200002020A0A08080404040401010101010190
:1002300001010303030303030303040707070C0C73
:100240000C0C0C0C0C0C020202020606060606063A
:1002500006060B0B0B0B0B0B0B0B000020002300F7
:10026000260029002C002F003200000100000301AD
:100270000601090100002200250028002B002E00A5
:100280003100340002010000050108010B010000EB
:100290002100240027002A002D0030003300010136
:1002A0000000040107010A017C3C3E5E2B3D3F2F0C
:1002B0005B5D3B2C2A225C00BC0AEB0E800F1A16F9
:1002C0001019621C1E2F11241FBECFEFD1E2DEBF1A
:1002D000CDBF00E00CBF15E0A0E0B2E0E6ECFBE62D
:1002E00000E00BBF02C007900D92AA30B107D9F70A
:1002F0002CE0AAE0B5E001C01D92A631B207E1F7FB
:1003000011E0C3E6D1E000E006C021970109802F8B
:10031000FE010E948F2FCC35D10780E00807A9F796
:100320000E94AE0F0C94E1356BCECF92DF92EF922C
:10033000FF920F931F93E82FF92F05C00150110969
:100340002109310961F1908196239417B9F305C011
:10035000015011092109310911F19081962394135B
:10036000F7CFC12CD12CE12CF12C0AC08FEFC81A89
:10037000D80AE80AF80A0C151D052E053F0579F084
:1003800080818623841791F36C2D7D2D8E2D9F2DDA
:100390001F910F91FF90EF90DF90CF90089560E054
:1003A00070E080E090E01F910F91FF90EF90DF9060
:1003B000CF900895CF93DF93CDB7DEB76B970FB68D
:1003C000F894DEBF0FBECDBF26E040E855E260E006
:1003D00070E08FEB95E00E941E0E26E040E855E2AB
:1003E00060E070E08CE596E00E941E0E60911202C3
:1003F00080E195E00E94F51564E080E195E00E94BF
:100400009E15609112028EE095E00E94F51564E061
:100410008EE095E00E949E15609112028CE095E0BE
:100420000E94F51564E08CE095E00E949E156091B5
:1004300012028AE095E00E94F51564E08AE095E0FA
:100440000E949E1569E070E082E195E00E94392AE1
:100450006CE271E080E090E00E945F116AE570E07C
:1004600082E195E00E94742A61E085E20E94811297
:1004700060E087E20E94811264E08EE595E00E94D0
:10048000062C8EE280935E0561E085E30E94811276
:1004900065E384E097E00E948217811103C06EE655
:1004A00072E01CC021E046E752E064E077E0CE0154
:1004B00001960E948F18CE0101960E945B17882337
:1004C00059F06CE772E08FEB95E00E942110CE01AD
:1004D00001960E94491706C068E872E08FEB95E02C
:1004E0000E9421100E942E117093700560936F0579
:1004F00081E090E090936E0580936D056B960FB64A
:10050000F894DEBF0FBECDBFDF91CF9108954F921B
:100510005F926F927F928F929F92AF92BF92CF9293
:10052000DF92EF92FF928090150590901605A090B3
:100530001705B090180540911402509115024150D2
:10054000510940900E0250900F026090100270907E
:100550001102E9E1F5E021E030E080E090E02417CD
:100560003507A4F4C190D190E190F1904C145D0452
:100570006E047F0440F4C814D904EA04FB0418F4A0
:10058000C901460157012F5F3F4FE9CFFF90EF9020
:10059000DF90CF90BF90AF909F908F907F906F90A3
:1005A0005F904F900895CF92DF92EF92FF92CF939A
:1005B000DF93882309F442C0C3E0D0E0C12CD12CE2
:1005C000760160E085E20E94BD1282E090E00E9428
:1005D000991161E085E20E94BD128AE090E00E94DC
:1005E000991160E085E20E94BD1220E432E44FE000
:1005F00050E061E087E20E94EB12C60ED71EE81EB3
:10060000F91E2197F1F623E030E0032E000C440B95
:10061000550BC701B6010E94512FCA01B9010E94B2
:10062000060C2BE43BE44BE652E40E946D0BDF9199
:10063000CF91FF90EF90DF90CF90089560E085E23A
:100640000E94BD1282E090E00E94991161E085E273
:100650000E94BD128AE090E00E94991160E085E25C
:100660000E94BD1220E432E44FE050E061E087E2F6
:100670000E94EB126B017C0121E030E0C6CF8F922B
:100680009F92AF92BF92EF92FF920F931F93CF93DF
:10069000DF93CDB7DEB762970FB6F894DEBF0FBE1B
:1006A000CDBF95E1A92E95E0B92E00E010E0E12C38
:1006B000F12C8091140290911502E816F9060CF0C5
:1006C0005CC0B80182E195E00E94742AE114F10453
:1006D00031F468EE73E080E090E00E945F116FE11A
:1006E00070E080E090E00E945F1180E05CDF0E949B
:1006F000DA0BAB01BC01F501419351936193719306
:100700005F012AE0CE0101960E9458144AE0B80128
:10071000CE010D960E942D1469E972E0CE01079674
:100720000E940414BE01635F7F4FCE0107960E94B2
:10073000B11461EA72E00E94C214BE016F5F7F4F84
:100740000E94B1146EEA72E00E94C214BC018FEBE9
:1007500095E00E941110CE0107960E949913CE01D8
:100760000D960E949913CE0101960E949913FFEFF6
:10077000EF1AFF0A065F1F4F9CCFC9DE7C01FC0108
:10078000EE0FFF1FEE0FFF1FEB5EFA4F8080918090
:10079000A280B3802AE0B501A401CE0101960E9497
:1007A00058148AE08E9D80018F9D100D11244AE01F
:1007B000B801CE010D960E942D1462EB72E0CE01BD
:1007C00007960E940414BE01635F7F4FCE01079617
:1007D0000E94B1146CEC72E00E94C214BE016F5F03
:1007E0007F4F0E94B1146EEA72E00E94C214BC01F5
:1007F0008FEB95E00E941110CE0107960E9499138D
:10080000CE010D960E949913CE0101960E94991374
:1008100080910A0290910B02A0910C02B0910D02FE
:1008200088169906AA06BB0660F4B80182E195E035
:100830000E94742A6CED75E080E090E00E945F11E8
:1008400002C00FEF1FEFC80162960FB6F894DEBF2B
:100850000FBECDBFDF91CF911F910F91FF90EF9011
:10086000BF90AF909F908F9008950E9406128231A2
:10087000910554F0BC016151710985E595E10E9433
:100880003E2FCB010297089588E893E10895CF9316
:10089000C62F8230C1F168F4882369F1813009F0F4
:1008A00045C08EE095E00E94F51564E08EE095E08D
:1008B0003AC0833081F18430C9F580E195E00E942F
:1008C000F51564E080E195E00E949E156C2F8EE0A6
:1008D00095E00E94F51564E08EE095E00E949E157B
:1008E0006C2F8CE095E00E94F51564E08CE095E0BB
:1008F0000E949E1510C080E195E00E94F51564E00D
:1009000080E195E010C08CE095E00E94F51564E070
:100910008CE095E008C06C2F8AE095E00E94F51508
:1009200064E08AE095E0CF910C949E15CF910895F4
:10093000CF92DF92EF92FF92CF93C82F6091120275
:1009400070911302072E000C880B990B61D72AE9CE
:1009500039E949E95EE30E94BC0C27D76B017C01B1
:100960008C2F90E08930910508F0DDC0FC018827CC
:10097000EE58FF4F8F4F0C948F2F61E080E195E090
:100980000E949E1561E08EE095E00E949E1561E058
:100990008CE095E00E949E1561E08AE095E00E945F
:1009A0009E1581E0BDC0B60180E071DF61E080E1AD
:1009B00095E00E949E15B60182E069DF61E08CE05F
:1009C00095E00E949E1561E08EE095E00E949E15E4
:1009D00061E08AE095E00E949E1582E0A1C061E09E
:1009E00080E195E00E949E1561E08CE095E00E9418
:1009F0009E15B60181E04BDF61E08EE095E00E943C
:100A00009E15B60183E043DF61E08AE095E00E9435
:100A10009E1583E085C062E080E195E00E949E150E
:100A200062E08EE095E00E949E1562E08CE095E029
:100A30000E949E1562E08AE095E00E949E1584E087
:100A40006FC0B60180E023DF62E080E195E00E94A4
:100A50009E15B60182E01BDF62E08CE095E00E940B
:100A60009E1562E08EE095E00E949E1562E08AE0AD
:100A700095E00E949E1585E053C062E080E195E01C
:100A80000E949E1562E08CE095E00E949E15B601E2
:100A900081E0FDDE62E08EE095E00E949E15B601E9
:100AA00083E0F5DE62E08AE095E00E949E1586E034
:100AB00037C067ED72E08FEB95E00E94211062E095
:100AC00080E195E00E949E1562E08CE095E00E9436
:100AD0009E1561E08EE095E00E949E1561E08AE03F
:100AE00095E00E949E1587E01BC064EE72E08FEBDC
:100AF00095E00E94211061E080E195E00E949E1542
:100B000061E08CE095E00E949E1562E08EE095E049
:100B10000E949E1562E08AE095E00E949E1588E0A2
:100B200080935D051CC062EF72E08FEB95E00E9440
:100B3000211064E080E195E00E949E1564E08EE063
:100B400095E00E949E1564E08CE095E00E949E1561
:100B500064E08AE095E00E949E1510925D050E9477
:100B60002E117093720560937105CF91FF90EF90F5
:100B7000DF90CF9008950F931F93CF93DF938C0155
:100B800080917305909174050A970CF064C068EC2D
:100B900070E084E07CDE0E32110580F46AEF72E0D2
:100BA0008FEB95E00E94211081E0C2DE64E670E0E8
:100BB00080E090E00E945F1188E028C0C8018E9715
:100BC0008C9780F46AE173E08FEB95E00E9421102E
:100BD00081E0AEDE64E670E080E090E00E945F11AC
:100BE00088E02CC0C8018B5591098D9798F46BE370
:100BF00073E08FEB95E00E94211081E099DE64E6BE
:100C000070E080E090E00E945F1187E091DEC4EF29
:100C1000D1E017C0085811090D32110590F46CE5A8
:100C200073E08FEB95E00E94211081E081DE64E6A5
:100C300070E080E090E00E945F1187E079DEC8EE0E
:100C4000D3E080917305909174050196909374059B
:100C50008093730502C080E06BDEBE01DD0F880B60
:100C6000990B0E945F1180E0DF91CF911F910F914E
:100C70005FCECF93DF93EC01BC018FEB95E00E9438
:100C80002110BE018EE595E0DF91CF910C941A2FD3
:100C90000F931F93CF93DF93CDB7DEB72C970FB68B
:100CA000F894DEBF0FBECDBF26E130E040E050E05B
:100CB00061E070E080E090E00E9437137F936F93D3
:100CC0008EE793E09F938F938E010F5F1F4F1F93CB
:100CD0000F930E94F032C801CCDF0F900F900F905D
:100CE0000F900F900F902C960FB6F894DEBF0FBEAA
:100CF000CDBFDF91CF911F910F910895CF92DF92D9
:100D0000EF92FF920F931F93CF93DF93EC018B0130
:100D100081E049DC6B017C0120E030E040E251E4FD
:100D2000D8D418161CF4CB30D10564F5809112028A
:100D300090911302883C910529F480915D058430DF
:100D400009F41EC188EC90E0909313028093120284
:100D50000F30110564F468EC70E084E098DD87E002
:100D6000E7DD64EF71E080E090E00E945F11609148
:100D700012027091130284E08ADD84E0D9DD65E817
:100D800073E03DC020E030E040EA51E4C701B60125
:100D9000A0D418161CF4C531D105B4F58091120207
:100DA000909113028436910529F480915D05843079
:100DB00009F4E6C084E690E0909313028093120257
:100DC0000F30110564F464E670E084E060DD87E0D4
:100DD000AFDD64EF71E080E090E00E945F11609110
:100DE00012027091130284E052DD84E0A1DD0E94C2
:100DF0002E1170937205609371056BE973E08FEBB0
:100E000095E00E942110BCC020E030E040E252E4B6
:100E1000C701B6015ED418161CF4C932D105D4F44A
:100E20008091120290911302892B29F480915D0523
:100E3000882309F4A5C0109213021092120280E0D8
:100E400077DD62E370E080E090E00E945F1161EB8B
:100E500073E0D5CF20E030E040E752E4C701B601AF
:100E600038D4181614F4ED97FCF480911202909186
:100E700013028436910529F480915D05813009F4CF
:100E80007FC084E690E0909313028093120264E6A0
:100E900070E084E0FCDC81E04BDD10927405109280
:100EA000730560EC73E0ABCF20E030E04FEA53E431
:100EB000C701B6010ED4181644F120E030E040E737
:100EC00052E4C701B60154D51816FCF48091120201
:100ED00090911302883C910529F480915D05813041
:100EE00009F44EC088EC90E09093130280931202B4
:100EF00068EC70E084E0CBDC81E01ADD10927405D0
:100F00001092730564ED73E07ACF20E030E046E99B
:100F100053E4C701B6012CD5181694F580915D05F0
:100F20008750823068F168EE73E08FEB95E00E94A5
:100F3000211080E0FDDCA3DB8F3F2FEF920711F043
:100F40001ADE12C088EC90E0909313028093120294
:100F500068EC70E084E09BDC81E0EADC68EE73E042
:100F600080E090E00E945F116AE570E082E195E028
:100F70000E94742A6CE271E080E090E00E945F11B0
:100F800080915D0581114CC00E942E112091710548
:100F900030917205621B730BCB01855F9140833FDB
:100FA000914098F40E942E1120916F0530917005A8
:100FB000621B730B693B7B409CF16ADE0E942E1121
:100FC0007093700560936F052BC0613D774044F1CD
:100FD00066E970E084E05BDC80916705882329F096
:100FE00087E0A6DC1092670505C088E0A1DC81E0FF
:100FF0008093670526ED36E040E050E064EF71E055
:1010000080E090E00E9437130E945F1180E0DF9142
:10101000CF911F910F91FF90EF90DF90CF9088CCF0
:10102000DF91CF911F910F91FF90EF90DF90CF90C4
:101030000895EF92FF920F931F93CF93DF93CDB755
:10104000DEB72C970FB6F894DEBF0FBECDBF7C0184
:101050008B0180917905882309F408C210927905E3
:101060000E942E1160937505709376058093770525
:101070009093780580911B0280931A0260917A0503
:1010800060931B02861709F4CBC18FEB95E0E9D77B
:1010900090911B02492F50E0FA01E254F109E73325
:1010A000F10508F0A2C18827E558FF4F8F4F0C9437
:1010B0008F2F80916605811115C080915D0581306B
:1010C00089F02FE1E216F10494F060911202709120
:1010D000130284E0DCDB81E0C8C1809166058823CF
:1010E00009F488C08FE1E816F1040CF0BFC184E078
:1010F0001FDC64E670E080E090E00E945F1180E019
:1011000017DC64EF73E08FEB95E080D74AE050E0A6
:10111000B7018FEB95E00E94D4106CE074E034C00E
:1011200080916605811114C080915D05843081F045
:101130000F3111058CF0609112027091130284E05E
:10114000A6DB84E092C180916605882309F464C01F
:101150000F3111050CF08AC181E0EADB64E670E032
:1011600080E090E00E945F1180E0E2DB62E374E0E7
:101170008FEB95E04BD74AE050E0B8018FEB95E05C
:101180000E94D41069E474E08FEB95E05AD76EC1E9
:101190008091660581116AC180915D05873009F4EF
:1011A00065C1609112027091130284E070DB87E0E8
:1011B0005CC180916605811159C180915D058830BF
:1011C00009F454C1609112027091130284E05FDB54
:1011D00088E04BC180916605811148C180915D0511
:1011E000882309F443C1609112027091130284E0D4
:1011F0004EDB3AC180915D05833009F473CF2FE156
:10120000E216F1040CF473CF609112027091130294
:1012100084E03DDB83E029C180915D05863009F4DF
:1012200097CF0F3111050CF497CF60911202709196
:10123000130284E02CDB86E018C1809166058111E1
:1012400051CF80915D05823009F44CCF2FE1E21639
:10125000F1040CF44CCF609112027091130284E0FF
:1012600016DB82E002C180916605811171CF809109
:101270005D05833009F46CCF0F3111050CF46CCF90
:10128000609112027091130284E001DB85E0EDC0F1
:1012900010926605EBC0809166058111E7C08091D0
:1012A000680581110BC0DAD770936A0560936905F0
:1012B00081E08093680581E090E00AC0CFD7709309
:1012C0006A056093690580916B0590916C050196A4
:1012D00090936C0580936B0580916D0590916E05E0
:1012E0004797A4F181E090E090936E0580936D059F
:1012F0002DC0809166058111B9C08091680581116A
:101300000BC0ACD770936A056093690581E0809348
:10131000680581E090E00AC0A1D770936A056093E8
:10132000690580916B0590916C05019690936C0511
:1013300080936B0580916B0590916C05479734F015
:1013400081E090E090936C0580936B0560E774E01A
:101350008FEB95E05BD660916B0570916C054AE070
:1013600050E08FEB95E020D781C080916605811118
:101370007DC080916D0590916E059C012F5F3F4F60
:1013800030936E0520936D059F938F938EE793E0C6
:101390009F938F938E010F5F1F4F1F930F930E9498
:1013A000F032B8018FEB95E04CD6C80162DC0F90AB
:1013B0000F900F900F900F900F9080916D0590916E
:1013C0006E0547970CF452C081E090E090936E0553
:1013D00080936D054BC080916605811147C058DC34
:1013E00045C081E08093660541C0913739F48FEFA5
:1013F00090E0909313028093120238C080ED890F21
:101400008A30A0F5892F90E0C09749E1489F90016C
:10141000499F300D1124309313022093120226C0ED
:101420001DD7609316027093170280931802909351
:10143000190200917505109176052091770530917C
:101440007805DC01CB01801B910BA20BB30B853F10
:101450009140A105B10550F080916605811106C04B
:1014600080915D05882311F080E062DA8091680543
:10147000882379F1F3D62091690530916A05621BC2
:10148000730B6F3E72402CF180916C058F938091AD
:101490006B058F938EE793E09F938F938E010F5F81
:1014A0001F4F1F930F930E94F032B8018FEB95E00E
:1014B000C8D5C801DEDB81E090E090936C05809395
:1014C0006B05109268050F900F900F900F900F9082
:1014D0000F902C960FB6F894DEBF0FBECDBFDF91F4
:1014E000CF911F910F91FF90EF9008950F931F934D
:1014F000CF93DF9380911E0290911F02B6D9EC0129
:1015000080911C0290911D02B0D98C0180917905C7
:10151000882309F180917A05873529F08737D9F436
:101520001092660503C081E08093660597D66093AC
:101530007505709376058093770590937805809173
:101540001B0280931A0280917A0580931B021092ED
:10155000790580E0EDD980916605B801882331F0E6
:10156000CE01DF91CF911F910F91C8CBCE01DF91BA
:10157000CF911F910F915DCD82E195E00E9472297C
:1015800042E061E080E195E00E94581542E062E0AF
:101590008EE095E00E94581542E063E08CE095E013
:1015A0000E94581542E064E08AE095E00C945815DA
:1015B0008CE596E044D21816190644F48CE596E0C2
:1015C00058D280937A0581E080937905089580E070
:1015D00090E0089508951F920F920FB60F92112474
:1015E0000BB60F922F933F934F935F936F937F931D
:1015F0008F939F93AF93BF93EF93FF93E091BD05BC
:10160000F091BE05309709F451C0968DA685B78537
:10161000858591FF04C09C91892329F447C09C9142
:10162000892309F043C0A389B4899C918589809559
:1016300089238C93868997890197F1F7608D718D45
:10164000A685B785558538E020E0CB010197F1F7F5
:10165000822F90E095958795282F4C91452309F08E
:101660002068315091F7868D81FD209580917C0511
:1016700090E001968F73992730917B05381749F0D8
:10168000A0917C05B0E0A358BA4F2C9380937C05C1
:1016900003C0868D8160868F828D938D0197F1F7CF
:1016A000A389B4899C918589892B8C93FF91EF91B3
:1016B000BF91AF919F918F917F916F915F914F916A
:1016C0003F912F910F900BBE0F900FBE0F901F9068
:1016D0001895D9D008F481E008950CD00FC107D136
:1016E00040F0FED030F021F45F3F19F0F0C051110E
:1016F00039C1F3C014D198F39923C9F35523B1F339
:10170000951B550BBB27AA2762177307840738F070
:101710009F5F5F4F220F331F441FAA1FA9F333D0CF
:101720000E2E3AF0E0E830D091505040E695001C83
:10173000CAF729D0FE2F27D0660F771F881FBB1F3F
:10174000261737074807AB07B0E809F0BB0B802D19
:10175000BF01FF2793585F4F2AF09E3F510568F065
:10176000B6C000C15F3FECF3983EDCF386957795F9
:101770006795B795F7959F5FC9F7880F911D969567
:10178000879597F90895E1E0660F771F881FBB1FC3
:10179000621773078407BA0720F0621B730B840B70
:1017A000BA0BEE1F88F7E095089504D06894B11144
:1017B000D9C00895BCD088F09F5790F0B92F9927D1
:1017C000B751A0F0D1F0660F771F881F991F1AF04C
:1017D000BA95C9F712C0B13081F0C3D0B1E0089515
:1017E000C0C0672F782F8827B85F39F0B93FCCF396
:1017F000869577956795B395D9F73EF49095809542
:10180000709561957F4F8F4F9F4F0895E89409C061
:1018100097FB3EF490958095709561957F4F8F4F23
:101820009F4F9923A9F0F92F96E9BB279395F69539
:10183000879577956795B795F111F8CFFAF4BB0FB7
:1018400011F460FF1BC06F5F7F4F8F4F9F4F16C01B
:10185000882311F096E911C0772321F09EE8872FA5
:10186000762F05C0662371F096E8862F70E060E061
:101870002AF09A95660F771F881FDAF7880F9695DA
:10188000879597F90895990F0008550FAA0BE0E87E
:10189000FEEF16161706E807F907C0F01216130632
:1018A000E407F50798F0621B730B840B950B39F472
:1018B0000A2661F0232B242B252B21F408950A26D8
:1018C00009F4A140A6958FEF811D811D089597F918
:1018D0009F6780E870E060E008959FEF80EC0895D6
:1018E00000240A94161617061806090608950024FF
:1018F0000A9412161306140605060895092E039479
:10190000000C11F4882352F0BB0F40F4BF2B11F4EC
:1019100060FF04C06F5F7F4F8F4F9F4F089557FD4B
:101920009058440F551F59F05F3F71F04795880F4D
:1019300097FB991F61F09F3F79F0879508951216E4
:1019400013061406551FF2CF4695F1DF08C0161690
:1019500017061806991FF1CF869571056105089441
:101960000895E894BB2766277727CB0197F9089558
:101970008ADF08F48FEF08950BD0C0CFB1DF28F0D5
:10198000B6DF18F0952309F0A2CFA7CF1124EACF34
:10199000C6DFA0F3959FD1F3950F50E0551F629FCE
:1019A000F001729FBB27F00DB11D639FAA27F00DB8
:1019B000B11DAA1F649F6627B00DA11D661F829FDF
:1019C0002227B00DA11D621F739FB00DA11D621FC4
:1019D000839FA00D611D221F749F3327A00D611DE1
:1019E000231F849F600D211D822F762F6A2F1124C3
:1019F0009F5750408AF0E1F088234AF0EE0FFF1F16
:101A0000BB1F661F771F881F91505040A9F79E3F4C
:101A1000510570F05CCFA6CF5F3FECF3983EDCF34E
:101A2000869577956795B795F795E7959F5FC1F789
:101A3000FE2B880F911D9695879597F90895FC01C7
:101A4000918D228D892F90E0805C9F4F821B9109A0
:101A50008F7399270895FC01918D828D981731F02D
:101A6000828DE80FF11D858D90E008958FEF9FEF37
:101A70000895FC01918D828D981761F0828DDF01B0
:101A8000A80FB11D5D968C91928D9F5F9F73928F71
:101A900090E008958FEF9FEF0895FC01538D448DE2
:101AA000252F30E0842F90E0821B930B541710F009
:101AB000CF9608950197089582EE9EE0892B39F024
:101AC00080E090E0892B19F07DD1811124C080E065
:101AD00090E0892B41F080E090E0892B21F00E947A
:101AE000000081111BC080E090E0892B41F080E074
:101AF00090E0892B21F00E940000811112C087E73D
:101B00009FE0892B91F088ED9AE0892B71F0EFD15D
:101B100081110AC008950E940000D9CF0E940000E0
:101B2000E2CF0E940000EBCF43CD0895FC01848DED
:101B3000DF01A80FB11DA35ABF4F2C91848D90E0F7
:101B400001968F739927848FA689B7892C93A089D2
:101B5000B1898C9180648C93938D848D981306C089
:101B60000288F389E02D80818F7D80830895EF9234
:101B7000FF920F931F93CF93DF93EC0181E0888F47
:101B80009B8D8C8D981305C0E889F989808185FD2E
:101B900023C0F62E0B8D10E00F5F1F4F0F73112720
:101BA000E02E8C8DE8120BC00FB607FCFACFE88947
:101BB000F989808185FFF5CFCE01B8DFF2CF8B8D1B
:101BC000FE01E80FF11DE35AFF4FF0820B8FEA8907
:101BD000FB898081806207C0EE89FF896083E88984
:101BE000F98980818064808381E090E0DF91CF91EA
:101BF0001F910F91FF90EF900895CF93DF93EC0129
:101C0000888D8823C1F0EA89FB89808185FD05C024
:101C1000A889B9898C9186FD0EC00FB607FCF5CF57
:101C2000808185FFF2CFA889B9898C9185FFEDCF9E
:101C3000CE017CDFE8CFDF91CF910895CF92DF9284
:101C4000EF92FF921F93CF93DF93EC016A017B0128
:101C5000122FE889F98982E080834115514E610590
:101C60007105B1F060E079E08DE390E0A7019601A5
:101C70000E94512FDA01C9010197A109B109B69556
:101C8000A795979587959C01211580E13807A8F0C5
:101C9000E889F989108260E874E88EE190E0A70194
:101CA00096010E94512FDA01C9010197A109B109DA
:101CB000B695A795979587959C01EC85FD85308312
:101CC000EE85FF852083188EEC89FD891083EA89D3
:101CD000FB89808180618083EA89FB8980818860BB
:101CE0008083EA89FB89808180688083EA89FB8917
:101CF00080818F7D8083DF91CF911F91FF90EF9046
:101D0000DF90CF9008951F920F920FB60F9211247B
:101D10000BB60F922F938F939F93EF93FF93E091C6
:101D2000CF05F091D0058081E091D505F091D605E1
:101D300082FD12C090818091D8058F5F8F732091B2
:101D4000D905821751F0E091D805F0E0E154FA4F3F
:101D5000958F8093D80501C08081FF91EF919F916D
:101D60008F912F910F900BBE0F900FBE0F901F9071
:101D700018951F920F920FB60F9211240BB60F9267
:101D80002F933F934F935F936F937F938F939F9383
:101D9000AF93BF93EF93FF938FEB95E0C7DEFF9177
:101DA000EF91BF91AF919F918F917F916F915F91D3
:101DB0004F913F912F910F900BBE0F900FBE0F9040
:101DC0001F9018958FEB95E03ADE21E0892B09F4FE
:101DD00020E0822F0895EFEBF5E01382128288EE67
:101DE00093E0A0E0B0E084839583A683B7838BE87B
:101DF00094E09183808385EC90E09587848784ECE0
:101E000090E09787868780EC90E0918B808B81ECC7
:101E100090E0938B828B82EC90E0958B848B86ECA8
:101E200090E0978B868B118E128E138E148E0895F0
:101E30001F920F920FB60F9211240BB60F922F9391
:101E40008F939F93EF93FF93E0916C06F0916D0653
:101E50008081E0917206F091730682FD12C090813C
:101E6000809175068F5F8F7320917606821751F0EF
:101E7000E0917506F0E0E45AF94F958F809375066E
:101E800001C08081FF91EF919F918F912F910F90D1
:101E90000BBE0F900FBE0F901F9018951F920F92C0
:101EA0000FB60F9211240BB60F922F933F934F93BF
:101EB0005F936F937F938F939F93AF93BF93EF93B2
:101EC000FF938CE596E032DEFF91EF91BF91AF91E9
:101ED0009F918F917F916F915F914F913F912F9142
:101EE0000F900BBE0F900FBE0F901F9018958CE5B2
:101EF00096E0A5DD21E0892B09F420E0822F0895EA
:101F0000ECE5F6E01382128288EE93E0A0E0B0E008
:101F100084839583A683B7838BE894E09183808341
:101F200085E391E09587848784E391E097878687AE
:101F300080E391E0918B808B81E391E0938B828BA6
:101F400082E391E0958B848B86E391E0978B868B7F
:101F5000118E128E138E148E08950895F5D1FDDF23
:101F60000E94DA01CCE5DDE0C1DA2097E9F3A4DDD7
:101F7000FBCFCF92DF92EF92FF920F931F93CF93FD
:101F8000DF936C017A018B01C0E0D0E0CE15DF0554
:101F900081F0D8016D918D01D601ED91FC910190F8
:101FA000F081E02DC6011995892B11F02196EECF15
:101FB0007E01C701DF91CF911F910F91FF90EF90AC
:101FC000DF90CF9008956115710579F0FB010190C4
:101FD0000020E9F73197AF01461B570BDC01ED916B
:101FE000FC910280F381E02D199480E090E0089547
:101FF000DB0114964D915C9115976D917C91DC01FC
:10200000ED91FC910280F381E02D1994DCCFDC018D
:10201000ED91FC910190F081E02D199469E974E053
:10202000D2CF0F931F93CF93DF93EC01E1DF8C01AD
:10203000CE01F4DF800F911FDF91CF911F910F919F
:1020400008950F931F93CF93DF93EC01BCDF8C01B6
:10205000CE01E4DF800F911FDF91CF911F910F918F
:1020600008950F931F93CF93DF93EC01D0DF8C0182
:10207000CE01D4DF800F911FDF91CF911F910F917F
:1020800008958F929F92AF92BF92EF92FF920F931B
:102090001F93CF93DF93CDB7DEB7A1970FB6F89418
:1020A000DEBF0FBECDBF7C01FA01CB0119A22230E9
:1020B00008F42AE08E010F5D1F4F822E912CA12C77
:1020C000B12CBF01A50194010E94512FF901CA0151
:1020D000015011096A3010F4605D01C0695CD801DB
:1020E0006C93232B242B252B61F7B801C7016BDFE1
:1020F000A1960FB6F894DEBF0FBECDBFDF91CF9192
:102100001F910F91FF90EF90BF90AF909F908F9095
:102110000895CF92DF92EF92FF920F931F93CF9388
:10212000DF932115310581F4DC01ED91FC910190E3
:10213000F081E02D642FDF91CF911F910F91FF90DF
:10214000EF90DF90CF9019942A303105F1F477FFAA
:102150001BC06A017B01EC016DE259DF8C01442751
:102160005527BA014C195D096E097F092AE0CE0195
:1021700088DF800F911FDF91CF911F910F91FF900A
:10218000EF90DF90CF9008952AE0DF91CF911F91DB
:102190000F91FF90EF90DF90CF9073CF9A01AB013A
:1021A000770F660B770BB5CF0F931F93CF93DF930A
:1021B000EC01F4DF8C01CE0131DF800F911FDF9144
:1021C000CF911F910F9108951F920F920FB60F920A
:1021D00011242F933F938F939F93AF93BF9380913D
:1021E000FA069091FB06A091FC06B091FD06309195
:1021F000F90623E0230F2D3720F40196A11DB11D10
:1022000005C026E8230F0296A11DB11D2093F906F3
:102210008093FA069093FB06A093FC06B093FD060C
:102220008091FE069091FF06A0910007B0910107F2
:102230000196A11DB11D8093FE069093FF06A09309
:102240000007B0930107BF91AF919F918F913F918C
:102250002F910F900FBE0F901F9018952FB7F894E5
:102260006091FA067091FB068091FC069091FD0644
:102270002FBF08953FB7F8948091FE069091FF0616
:10228000A0910007B091010726B5A89B05C02F3F7C
:1022900019F00196A11DB11D3FBFBA2FA92F982F8C
:1022A0008827820F911DA11DB11DBC01CD0142E007
:1022B000660F771F881F991F4A95D1F708958F924F
:1022C0009F92AF92BF92CF92DF92EF92FF926B01FB
:1022D0007C01D0DF4B015C01C114D104E104F104A5
:1022E000F9F00E94222FC6DFDC01CB018819990981
:1022F000AA09BB09883E9340A105B10568F321E016
:10230000C21AD108E108F10888EE880E83E0981E11
:10231000A11CB11CC114D104E104F10421F7DCCFEC
:10232000FF90EF90DF90CF90BF90AF909F908F90F5
:1023300008958230910538F0880F991F880F991FF2
:1023400005970197F1F70895789484B5826084BD6C
:1023500084B5816084BD85B5826085BD85B58160A9
:1023600085BDEEE6F0E0808181608083E1E8F0E009
:102370001082808182608083808181608083E0E838
:10238000F0E0808181608083E1EBF0E08081846017
:102390008083E0EBF0E0808181608083E1E9F0E020
:1023A000808182608083808181608083E0E9F0E0C9
:1023B000808181608083E1EAF0E0808182608083B7
:1023C000808181608083E0EAF0E0808181608083A9
:1023D000E1E2F1E08081826080838081816080839E
:1023E000E0E2F1E0808181608083EAE7F0E08081D3
:1023F000846080838081826080838081816080832B
:102400008081806880831092C1000895863308F02F
:10241000865390917B00282F2870977F922B909362
:102420007B002091200290E4299F90011124877065
:10243000822B80937C0080917A00806480937A0064
:1024400080917A0086FDFCCF809178002091790000
:1024500090E0922B089590E0FC013197E231F10574
:1024600008F04EC08827EE54FF4F8F4F0C948F2FEB
:10247000809180008F7703C0809180008F7D809352
:102480008000089580918000877FF9CF84B58F7791
:1024900002C084B58F7D84BD08958091B0008F7790
:1024A00003C08091B0008F7D8093B000089580912B
:1024B00090008F7707C0809190008F7D03C080913E
:1024C0009000877F8093900008958091A0008F777F
:1024D00007C08091A0008F7D03C08091A000877FFE
:1024E0008093A0000895809120018F7707C080918C
:1024F00020018F7D03C080912001877F8093200180
:102500000895CF93DF9390E0FC01E253FE4F2491B6
:10251000FC01EC5EFD4F8491882361F190E0880F0F
:10252000991FFC01E257FD4FC591D491FC01EC5875
:10253000FD4FA591B491611109C09FB7F8948881AE
:10254000209582238883EC912E230BC0623061F4A6
:102550009FB7F8948881322F309583238883EC913C
:102560002E2B2C939FBF06C08FB7F894E8812E2B9B
:1025700028838FBFDF91CF9108951F93CF93DF936F
:10258000282F30E0F901E857FE4F8491F901E2531A
:10259000FE4FD491F901EC5EFD4FC491CC23B9F00C
:1025A000162F811158DFEC2FF0E0EE0FFF1FEC58D3
:1025B000FD4FA591B4919FB7F894111104C08C916F
:1025C000D095D82302C0EC91DE2BDC939FBFDF9126
:1025D000CF911F9108950F931F9390E0FC01E25358
:1025E000FE4F7491FC01EC5EFD4FE491662311F007
:1025F000672F01C060E0F0E0EE0FFF1FE65AFD4FCD
:102600008591949189019A013F70462F672F0E940E
:102610009501611571058105910549F0DC01CB013A
:102620000196A11DB11DBC01CD019F7003C060E0EA
:1026300070E0CB011F910F910895CF92DF92EF923E
:10264000FF92611571058105910549F06B017C01CF
:102650000E942D31A70196010E94732F03C060E0F4
:1026600070E0CB01FF90EF90DF90CF900895CF9274
:10267000DF92EF92FF920F931F9362177307840705
:1026800095077CF489019A016B017C01C901B801AD
:102690006C197D098E099F09D0DF6C0D7D1D8E1D83
:1026A0009F1D1F910F91FF90EF90DF90CF900895A5
:1026B0004F925F926F927F92AF92BF92CF92DF92D2
:1026C000EF92FF920F931F93CF93DF93CDB7DEB7B7
:1026D00029013A019B01AC01241935094609570922
:1026E0008A899B89AC89BD89BC01CD016A197B09A6
:1026F0008C099D090E94232FA801970124193509EF
:10270000460957090E94732FCA01B9016A0D7B1D42
:102710008C1D9D1DDF91CF911F910F91FF90EF9028
:10272000DF90CF90BF90AF907F906F905F904F9071
:102730000895FC01808191810C945C30CF93DF93EC
:10274000EC0188819981009711F00E945C30198218
:1027500018821D821C821B821A82DF91CF910895FC
:102760000F931F93CF93DF93EC018B016F5F7F4F2C
:10277000888199810E948131009731F09983888303
:102780001B830A8381E001C080E0DF91CF911F911C
:102790000F910895CF93DF93EC0188819981892B64
:1027A00029F08A819B818617970758F4CE01D8DFDC
:1027B000882341F08C819D81892B19F4E881F9816E
:1027C000108281E0DF91CF910895EF92FF920F93F5
:1027D0001F93CF93DF93EC017B018A01BA01DADF0B
:1027E000811103C0CE01AADF07C01D830C83B7018E
:1027F000888199810E948232CE01DF91CF911F9111
:102800000F91FF90EF900895FC01118210821382C6
:102810001282158214826115710549F0FB01019045
:102820000020E9F73197AF01461B570BCECF089533
:10283000CF93DF93EC016115710551F0FB0101901D
:102840000020E9F73197AF01461B570BBEDF01C0EF
:1028500075DFCE01DF91CF9108950F931F93CF9332
:10286000DF93CDB7DEB762970FB6F894DEBF0FBE29
:10287000CDBF8C01CB01F80111821082138212822C
:102880001582148250E0BE016F5F7F4F0E94983224
:10289000BE016F5F7F4FC801CBDF62960FB6F89421
:1028A000DEBF0FBECDBFDF91CF911F910F91089575
:1028B0000F931F93CF93DF93CDB7DEB7A1970FB6DA
:1028C000F894DEBF0FBECDBF8C01CB01BA01F80179
:1028D00011821082138212821582148230E0AE01BE
:1028E0004F5F5F4F0E94AC32BE016F5F7F4FC801E8
:1028F0009FDFA1960FB6F894DEBF0FBECDBFDF916C
:10290000CF911F910F910895EF92FF920F931F9314
:10291000CF93DF936115710511F480E01BC0411561
:102920005105B9F07B01EC018C819D818A01080F72
:10293000191FB801CE012EDF882379F32881398150
:102940008C819D81B701820F931F0E9482321D836B
:102950000C8381E0DF91CF911F910F91FF90EF9059
:102960000895CF93DF93EC01FB0144815581608191
:102970007181CADF811102C0CE01E0DECE01DF919C
:10298000CF910895CF93DF93EC016115710559F054
:10299000FB0101900020E9F73197AF01461B570B6F
:1029A000B3DF811102C0CE01C9DECE01DF91CF912C
:1029B0000895CF93DF9360E08CE0DFDD60E088E096
:1029C000DCDDC7E0D0E060E084E0D7DD8091030784
:1029D00090E00C2E02C0959587950A94E2F780FF4F
:1029E00002C061E001C060E088E0C7DD61E084E032
:1029F000C4DD219740F761E08CE0DF91CF91BDCD40
:102A0000CF93DF93EC0161E08CE07BDD61E087E058
:102A100078DD61E088E075DD61E084E072DD1092D0
:102A20000307CE01C6DF60E087E0DF91CF91A5CD3F
:102A3000E0E8F0E0908191689083877088608093EF
:102A40008100109289001092880061E08BE059CDDE
:102A5000E0E9F0E0908199609083877088608093CE
:102A6000910010929D0010929C0061E083E049CD9E
:102A7000E0EAF0E0908191689083877088608093AD
:102A8000A1001092A9001092A80061E086E039CD63
:102A9000E0E9F0E09081916890838770886080938E
:102AA0009100109299001092980061E085E029CD84
:102AB000CF93DF93C62FD42FFC016083418382E044
:102AC00097E09EDFC230F9F070F4C130A1F580913B
:102AD0000307837F8093030782E097E06ADF8D2FEF
:102AE000DF91CF91A5CFC330D1F0C43021F58091D3
:102AF00003078E7B8093030782E097E05ADF8D2FD8
:102B0000DF91CF91C5CF809103078D7E809303071E
:102B100082E097E04EDF8D2FDF91CF9199CF8091AA
:102B200003078F758093030782E097E042DF8D2FC4
:102B3000DF91CF919DCFDF91CF910895FC018081EE
:102B4000823049F018F4813079F00895833031F003
:102B5000843039F0089524E031E008C027E035E002
:102B600005C026E030E002C023E032E06230A9F088
:102B7000643029F16130C1F581E090E0AC0101C021
:102B8000440F3A95EAF730910307432B01C0880FB1
:102B90002A95EAF78095842322C081E090E0AC0179
:102BA00001C0440F3A95EAF7342F3095409103075E
:102BB000342301C0880F2A95EAF7832B10C041E027
:102BC00050E0CA0101C0880F3A95EAF701C0440FEE
:102BD0002A95EAF7842B80959091030789238093A7
:102BE000030782E097E0E5CE0895FC018081823002
:102BF00079F018F4813031F00895833079F0843021
:102C000099F0089570E070938900609388000895AA
:102C100070E070939D0060939C00089570E0709345
:102C2000A9006093A800089570E0709399006093E4
:102C300098000895109202070895CF93DF931F9292
:102C4000CDB7DEB76983DC01ED91FC910280F381A1
:102C5000E02D41E050E0BE016F5F7F4F19950F906E
:102C6000DF91CF910895CF93DF93EC01898D9A8DF9
:102C7000009739F481E090E09B838A8380E090E0C4
:102C80000BC0FC01138212820E94B721E98DFA8DDC
:102C900022813381232B71F7DF91CF910895FC01BD
:102CA000818D928D009711F00C946E1F0895CF9333
:102CB000DF931F92CDB7DEB741E050E0BE016F5FFA
:102CC0007F4F2CD7019719F4898190E002C08FEFD4
:102CD0009FEF0F90DF91CF910895FC01818D928D30
:102CE000009709F0E4CF8FEF9FEF08950F931F93A4
:102CF000CF93DF93FC01818D928D0097B1F0EF01AE
:102D0000D6DF8C010F3F8FEF180791F0898D9A8DD8
:102D1000FC014285538564857585415051096109DF
:102D200071090E94D81EC80105C080E090E002C071
:102D30008FEF9FEFDF91CF911F910F910895EF9249
:102D4000FF920F931F93CF93DF93EC017B018A01D6
:102D50001B821A8288EE93E0A0E0B0E08C839D8312
:102D6000AE83BF838CEA94E0998388838DE190E001
:102D70000E94C42F9A8F898F009779F02DE1F70177
:102D8000DC0101900D922A95E1F74CE050E0B8018A
:102D9000CE010C960E948932188EDF91CF911F913F
:102DA0000F91FF90EF900895FC011382128288EE3C
:102DB00093E0A0E0B0E084839583A683B7838CEA98
:102DC00094E091838083128E118E14860895FC0105
:102DD000818D928D009709F0A1C680E090E0089562
:102DE000FC01818D928D009721F0E2D791E0811155
:102DF00001C090E0892F0895DC015996ED91FC9176
:102E00005A97309729F06285738584859585089552
:102E10006FEF7FEFCB010895DC015996ED91FC91A6
:102E20005A97309729F0638974898589968908951E
:102E300060E070E0CB010895CF92DF92EF92FF92B5
:102E4000CF93DF93FC01218D328D232BC9F0EC0150
:102E5000E3DF6B017C01CE01CFDFA7019601261BCA
:102E6000370B480B590BDA01C901811530E893077C
:102E7000A105B10538F08FEF9FE7A0E0B0E002C0F8
:102E800080E090E0DF91CF91FF90EF90DF90CF90C6
:102E90000895CF93DF93EC01898D9A8D009741F0CF
:102EA0000E94B31F898D9A8D0E945C301A8E198EF4
:102EB000DF91CF910895DC015996ED91FC915A97DD
:102EC000309721F081E09581911101C080E0089553
:102ED0000F931F93CF93DF93EC018B0141E00E948E
:102EE000E526811109C040E0B801CE01DF91CF9104
:102EF0001F910F910C94E52681E0DF91CF911F91F6
:102F00000F9108950F931F93CF93DF93EC01462FFA
:102F100061E0E9D2882379F08E01045F1F4FBE0182
:102F2000C801D6DF882339F0B801CE018A96A6D52C
:102F300091E0811101C090E0892FDF91CF911F9125
:102F40000F910895FC01DB0112968D919C911397CE
:102F50009383828380EC94E09183808314968C9198
:102F60001497848315968C911597858316964D91A9
:102F70005D916D917C911997468357836087718726
:102F80001A964D915D916D917C911D974287538763
:102F9000648775871E964D915D916D917C915197D7
:102FA00046875787608B718B52968C915297828B94
:102FB00053964D915D916D917C915697438B548BB7
:102FC000658B768B57964D915D916D917C915A975B
:102FD000478B508F618F728F5B968D919C915C9720
:102FE000948F838F08954F925F926F927F928F920A
:102FF0009F92AF92BF92CF92DF92EF92FF920F9388
:103000001F93CF93DF93CDB7DEB7C754D1090FB667
:10301000F894DEBF0FBECDBF5C014A013901665D89
:103020007F4F6E018EE1C80ED11CC6018BDF1C8262
:103030001B8280EC94E09A8389831E8274018E0146
:103040000F5F1F4F5C2C4D2C6FE270E0C7010E9498
:103050007732009709F441C0F70120812F3271F4D3
:10306000FFEFEF1AFF0A902F812F052D142D2C0151
:10307000C201502E412E092F182FE6CF8E198D3008
:1030800008F08CE0C82ED12CA601B701CE01CB965A
:103090000E948932EBE3F0E0EC0FFD1FEC0DFD1D0B
:1030A0001082C80160D721E0AE01455C5F4F652DFD
:1030B000742DC8010E94D120811109C0F50113822D
:1030C000128280EC94E09183808315820FC0EC0C17
:1030D000FD1C852D942D47D7CBCFE818F908F301B7
:1030E000F182E082652D742DC5012CDFC501C95B1D
:1030F000DF4F0FB6F894DEBF0FBECDBFDF91CF918B
:103100001F910F91FF90EF90DF90CF90BF90AF9005
:103110009F908F907F906F905F904F900895AF92A7
:10312000BF92CF92DF92FF920F931F93CF93DF93C3
:10313000CDB7DEB7C955D1090FB6F894DEBF0FBEC3
:10314000CDBF6C015B018A01F22E9E01285A3F4FD0
:10315000CE01CB9648DF6A968EAD9FAD6A97080F79
:10316000191FF8018081811109C0BE01655C7F4F84
:10317000CE010196E7DE4AEB54E03BC019A218A24B
:1031800080EC94E09F8F8E8F1BA221968FAD2197AC
:10319000811103C0C60108DE31C08250823058F46C
:1031A000B501665D7F4F2F2DA801CE014E96F9D750
:1031B00081110EC0EFCF2F2DA801BE01655C7F4F9E
:1031C000CE014E96EED7882329F3CE01CB96CBD6EF
:1031D0008F2D867039F049A95AA96BA97CA9CE0117
:1031E0004E96E6D5BE01625E7F4FCE010196AADE05
:1031F000A801BE016F5F7F4FC601A1DDC601C75A9E
:10320000DF4F0FB6F894DEBF0FBECDBFDF91CF9179
:103210001F910F91FF90DF90CF90BF90AF900895D6
:10322000E4E0F7E0158216821186138682E090E0D2
:10323000A0E0B0E084879587A687B78713A215A67C
:1032400014A680EC94E093A782A717A608959FB7D1
:10325000F8942091F0098091EE09213019F48DBB8A
:103260009FBF08958FBF08950F93FC0180E092E106
:10327000AAE7B0E030E0481759076A077B0740F437
:10328000B695A795979587953F5F3630A1F737E0BC
:1032900091E09327222311F020E501C020E70C7074
:1032A000892F8695082B022B0083917091830F91B3
:1032B00008952091F009222399F04FB7F8942091B6
:1032C000F009213059F42DB32093EE093DB320913C
:1032D000EF09209523232DBB4FBF02C04093EE0979
:1032E0008CBD9DBD08958EBD00000DB407FEFDCFC1
:1032F0008EB508958FEFF7CF61E0FC0184813DD951
:1033000080914D07882331F010924D078091F0098C
:1033100081119DCF0895CF93DF93EC0180914D07EC
:10332000811108C081E080934D0780914E079091F4
:103330004F07BFDF60E08C81DF91CF911EC9CF9333
:10334000DF93EC018E81882379F08F8198859C0131
:103350002F5F3F4F38872F838230924010F4CADFAF
:10336000F4CFCE01C9DF1E82DF91CF9108950F9374
:10337000CF93DF931F921F92CDB7DEB7673028F04F
:1033800026E1FC01258380E046C06230F9F058F464
:103390006623A9F0613079F500E021E040E059E0D2
:1033A0006DE370E02EC06430F9F0B8F0653019F5C7
:1033B00000E021E040E950ED63E070E022C000E071
:1033C00021E040E458E76DE771E01BC000E021E038
:1033D00040E854E86EE170E014C000E021E040E411
:1033E00052E46FE070E00DC000E021E040E251EAFD
:1033F00067E070E006C000E021E048E458EE61E0DC
:1034000070E0CE01019630DF89819A8190934F0759
:1034100080934E0781E00F900F90DF91CF910F9135
:1034200008950F931F93CF93DF93EB010E942E110A
:103430008B0160DF8F3F49F00E942E11601B710BE2
:103440006C177D07B0F380E001C081E0DF91CF9180
:103450001F910F9108958F929F92AF92BF92FF920A
:103460000F931F93CF93DF93EC01F62E49015A017E
:1034700066DFCE0150DF6CE271E0CE01D2DF8F2D2E
:10348000806431DF08E110E0D501C401002E04C0E2
:10349000B695A795979587950A94D2F724DF08509B
:1034A0001109083F8FEF180779F7FF2029F088E00E
:1034B000F81204C087E803C085E901C08FEF13DF6D
:1034C00010E018DF8A8787FF04C01F3F11F01F5FDD
:1034D000F8CFDF91CF911F910F91FF90BF90AF90E8
:1034E0009F908F9008957F928F929F92AF92BF92FC
:1034F000CF92DF92EF92FF920F931F93CF93DF93C0
:103500001F921F92CDB7DEB77C01762EFC01138689
:1035100011861682158244830E942E116B0161E090
:10352000F70184810E94811261E0F701848125D82E
:103530000E94CF2A00E021E040E950ED63E070E016
:10354000CE01019691DE89819A8190934F078093F5
:103550004E07AFDE1AE08FEFC6DE1150E1F7809123
:10356000F009811174DEC701D6DE20E030E0A90148
:1035700060E0C70170DF082FF7018287813049F0D2
:103580000E942E116C197D09613D774070F381E036
:103590004BC02AEA31E040E050E068E0C7015BDF61
:1035A00082FF03C0F70103870DC004E0A3DEF7012B
:1035B00082870150D9F78A3A11F082E036C082E062
:1035C000F7018387F7018385823021F0812C912CCC
:1035D000540105C0812C912CA12C80E4B82E20E050
:1035E00030E0A90167E3C70136DFA501940169E274
:1035F000C70131DFF7018287882349F00E942E112D
:103600006C197D09613D774050F388E00DC0F701EA
:1036100083858230C1F420E030E0A9016AE3C7016C
:103620001ADF882331F086E0F7018583C70164DE65
:1036300010C060DE807C803C19F483E0F701838752
:1036400059DE58DE57DEC70157DE672DC7018FDE12
:10365000182F812F0F900F90DF91CF911F910F9115
:10366000FF90EF90DF90CF90BF90AF909F908F90A2
:103670007F9008950F931F93CF93DF93EC010E94E7
:103680002E118B0137DE8A878F3F49F40E942E115D
:10369000601B710B6D327140A8F38FE003C08E3F49
:1036A00031F08DE08D83CE0127DE80E001C081E026
:1036B000DF91CF911F910F910895CF92DF92EF92FA
:1036C000FF920F931F93CF93DF93EC016901C80121
:1036D000820F931F8130924008F057C08E8188235B
:1036E00071F088819981AA81BB8184179507A6070B
:1036F000B70729F48F819885C816D90600F5488345
:1037000059836A837B838B85833039F089E0440F4A
:10371000551F661F771F8A95D1F79A01AB0161E1AA
:10372000CE0199DE882319F083E08D832EC0CE016F
:10373000A1DF882351F118861F8281E08E838F815B
:1037400098858C159D0538F4D5DD8F819885019677
:1037500098878F83F4CF6701E00EF11ECE14DF044B
:1037600029F0C8DDF60181936F01F8CF8F8198852C
:10377000080F191F18870F838985882319F00115F1
:10378000124038F0CE01DBDD04C0CE01B5DD80E0B3
:1037900001C081E0DF91CF911F910F91FF90EF90D9
:1037A000DF90CF900895EF92FF920F931F93011532
:1037B000110511F082DF01C081E01F910F91FF9090
:1037C000EF900895EF92FF920F931F93790100E01D
:1037D00012E020E030E071DF1F910F91FF90EF9039
:1037E0000895EF92FF920F931F93CF93DF938C0175
:1037F000862F7A0178DDE7018EEFF81A899173DD63
:10380000CE15DF05D9F78FEF6EDD8FEF6CDD72DD42
:10381000F80182878F71853031F081E18583C8019D
:103820006BDD80E001C081E0DF91CF911F910F91AE
:10383000FF90EF9008950F931F93CF93DF93EC01C8
:103840008901411551056105710511F482E12DC011
:103850008B85833039F089E0440F551F661F771F31
:103860008A95D1F79A01AB0168E1CE01F4DD882396
:1038700011F084E01AC0A8016EEFCE01B2DF8823F8
:10388000A9F068E572E0CE01CCDD811102C085E1CE
:103890000CC020E030E0A9016DE0CE01DCDD81113B
:1038A00003C028DD882331F084E18D83CE0124DD3F
:1038B00080E003C0CE0120DD81E0DF91CF911F9138
:1038C0000F910895EEE4F7E080E58083118208957A
:1038D000CF93DF93EC019C012A5F3F4F41E050E022
:1038E00060E070E08B8D9C8D0E9480258823A1F084
:1038F0008F89988DA98DBA8D892B8A2B8B2B59F4A2
:103900008E819F81A885B9858F8B988FA98FBA8F5B
:103910008C8180688C8381E0DF91CF910895CF9274
:10392000DF92EF92FF921F93CF93DF93EC01D0DFF2
:10393000811102C080E049C0EB8DFC8DCE80DF801C
:10394000E884F98482E0C81AD108E108F108058406
:1039500004C0CC0CDD1CEE1CFF1C0A94D2F786853B
:103960009785A089B189C80ED91EEA1EFB1E148155
:1039700081E0C81AD108E108F108112359F0C70104
:10398000B601610F711D811D911D0DD7882391F224
:103990001150F3CFEB8DFC8D80E092E0A0E0B0E021
:1039A000058404C0880F991FAA1FBB1F0A94D2F771
:1039B0004B895C896D897E89840F951FA61FB71F6F
:1039C0008B8B9C8BAD8BBE8B81E0DF91CF911F9158
:1039D000FF90EF90DF90CF900895CF93DF93EC01AD
:1039E000462F6E857F8588899989A4D6882341F0E2
:1039F0008A8920E2829FC0011124875A984F02C011
:103A000080E090E0DF91CF910895FB019B01255F5D
:103A10003F4F40E24193E217F307E1F7DC0190E00A
:103A200027E08D91882319F18E3229F42A3021F173
:103A300098E02AE0F6CFE8EAF2E03491332321F06F
:103A400031968313FACF18C02917B0F03FED380F25
:103A50003E3590F431E0390FFB01E90FF11D9FE98C
:103A6000980F9A3108F480528083932FDACF81E047
:103A7000FB019081903209F480E008950F931F9329
:103A8000CF93DF93FC012581222311F080E041C018
:103A90008B01EC01FB0187898031B1F482E08D83D9
:103AA0001F8A188E198E1A8E808D918DA0E0B0E03D
:103AB00025E0880F991FAA1FBB1F2A95D1F78B8B72
:103AC0009C8BAD8BBE8B14C0803201F783E08D835D
:103AD000FB01428D538D648D758D4F8B588F698F8F
:103AE0007A8F9E012D5E3F4FC80102D7882371F265
:103AF0001C8F0B8F81E08C831E821F821886198693
:103B00001A861B861C861D861E861F86188A198AA1
:103B10001A8ADF91CF911F910F9108952F923F92B2
:103B20004F925F926F927F928F929F92AF92BF92CD
:103B3000CF92DF92EF92FF920F931F93CF93DF9379
:103B4000EC015B014A018D81811103C08FEF9FEF72
:103B5000D4C08C8180FFFACF4B885C886D887E88CA
:103B60004A855B856C857D85C401A0E0B0E093014A
:103B70008201041B150B260B370B081719072A07A0
:103B80003B0718F44201841A950A24011E0126E01D
:103B9000220E311C4114510409F47DC04A855B8515
:103BA0006C857D856A0181E0D822ED818B8D9C8DAD
:103BB0008A019B01F9E03695279517950795FA95A7
:103BC000D1F7E23061F4FC01828D938DA48DB58D27
:103BD000BC01CD01600F711F821F931F3EC0FC010D
:103BE00074807A947022C114D104C1F4711016C08B
:103BF000452B462B472B49F48F89988DA98DBA8D7B
:103C00008E839F83A887B98709C04E815F816885AD
:103C100079859101EBD5882309F498CFEB8DFC8D44
:103C20008E819F81A885B9850297A109B109058474
:103C300004C0880F991FAA1FBB1F0A94D2F746859C
:103C4000578560897189840F951FA61FB71FBC0116
:103C5000CD01670D711D811D911D20E032E02C19F1
:103C60003D0932012415350508F439012C8126FD62
:103C700004C06114F2E07F0671F5009121021091F9
:103C800022022091230230912402601771078207DB
:103C9000930719F420C0C40130C075018301960157
:103CA000AB01BC0180915707909158077CDD8823B8
:103CB00009F44CCFA60CB71C8A859B85AC85BD85C5
:103CC000860D971DA11DB11D8A879B87AC87BD8777
:103CD000461857085FCF40E02DD5882309F436CF2A
:103CE000F601E75AF84FD501CF01860D971D8E17C3
:103CF0009F0701F321912D93FACFDF91CF911F916F
:103D00000F91FF90EF90DF90CF90BF90AF909F907A
:103D10008F907F906F905F904F903F902F9008957D
:103D2000FF920F931F93CF93DF931F92CDB7DEB710
:103D3000FC012581223018F480E090E032C08C0133
:103D4000FC01428553856485758585E07695679588
:103D5000579547958A95D1F7F42FFF70FF2E41E0D4
:103D600050E0BE016F5F7F4FC801D8DE019719F4A4
:103D7000898190E002C08FEF9FEF0196E9F2F80190
:103D800082859385A485B5854F96A11DB11D828737
:103D90009387A487B587F0E2FF9EC0011124875A5C
:103DA000984F0F90DF91CF911F910F91FF90089541
:103DB0008F929F92AF92BF92CF92DF92EF92FF923B
:103DC0000F931F93CF93DF93EC018D81811102C07C
:103DD00080E077C00B891C892D893E89041715075F
:103DE00026073707A8F36A017B01823029F4CA86C7
:103DF000DB86EC86FD860DC0C114D104E104F1041C
:103E000051F41E821F82188619861A861B861C860C
:103E10001D8681E056C08A849B84AC84BD84EB8D72
:103E2000FC8D258530E0275F3F4FB501A40141504F
:103E3000510961097109022E04C07695679557955D
:103E400047950A94D2F7D701C6010197A109B10994
:103E500004C0B695A795979587952A95D2F78417AC
:103E60009507A607B70720F089288A288B2871F4C0
:103E70004F89588D698D7A8D4E835F8368877987E6
:103E80004C015D018E010A5F1F4F15C0841B950B0D
:103E9000A60BB70BF5CF4E815F81688579859801B8
:103EA0008B8D9C8DA3D491E0891A9108A108B1084B
:103EB000882309F48DCF81149104A104B10459F72A
:103EC00096CFDF91CF911F910F91FF90EF90DF90F0
:103ED000CF90BF90AF909F908F9008950F931F93B6
:103EE000CF93DF93EC018D818823B9F18C8187FF1B
:103EF0002FC061E0CE0171DD8C01892B71F18D81C4
:103F0000823048F48B899C89AD89BE89F801848F01
:103F1000958FA68FB78F8F89988DA98DBA8DF8014F
:103F2000938F828FB58BA48BE0915007F09151074E
:103F3000309759F0B8016A5E7F4FC80148961995CD
:103F4000F801808D918D938B828B8C818F778C8300
:103F5000DF91CF911F910F91B4C380E0DF91CF919A
:103F60001F910F910895CF93DF93EC01B7DF882362
:103F700011F01D8281E0DF91CF9108954F925F9201
:103F80006F927F928F929F92AF92BF92EF92FF9229
:103F90000F931F93CF93DF9300D01F92CDB7DEB75F
:103FA000FC0185818130E1F4848181FF19C083891E
:103FB0009489A589B68984179507A607B70780F065
:103FC000892B8A2B8B2B09F472C04A015B017F017C
:103FD0004284538464847584CF01EADE811102C077
:103FE00080E066C0F701838D948D81149104A10453
:103FF000B10469F44789508D618D728D92D6882302
:1040000079F3F701178A108E118E128E37C0F701DF
:1040100046815781608571859E012F5F3F4FE6D3B2
:104020008823F1F249815A816B817C81F701838D6C
:10403000948DFC012789203129F008EF1FEF2FEF25
:104040003FE004C008EF1FEF20E030E040175107C9
:104050006207730798F465D6882309F4C1CFF70186
:1040600046815781608571850FEF1FEF2FEF3FE08D
:10407000838D948DA5D4882309F4B2CFF701838A68
:10408000948AA58AB68A848180688483C70126DFE2
:10409000882309F4A5CFB501A401481459046A0482
:1040A0007B0410F4B301A201C70182DE01C081E0EC
:1040B0000F900F900F900F90DF91CF911F910F9164
:1040C000FF90EF90BF90AF909F908F907F906F90F8
:1040D0005F904F9008951F93CF93DF93EC0180E2A0
:1040E000689FF0011124E75AF84F9385917129F0E8
:1040F000842F827411F080E050C0142F6A8B80915D
:10410000210290912202A0912302B09124028E8775
:104110009F87A88BB98B4489558960E070E0BA010C
:1041200055274427828D938DA0E0B0E0482B592B72
:104130006A2B7B2B4F8B588F698F7A8F8385887181
:1041400051F4848D958DA68DB78D8B8B9C8BAD8B0B
:10415000BE8B81E00BC0803171F69E012D5E3F4F1A
:104160008B8D9C8DC5D3882331F284E08D83812F84
:104170008F708C831E821F82188619861A861B8672
:104180001C861D8616FF08C040E050E0BA01CE0133
:10419000DF91CF911F91F2CE81E0DF91CF911F91FE
:1041A0000895BF92CF92DF92EF92FF920F931F93E9
:1041B000CF93DF93CDB7DEB72B970FB6F894DEBF62
:1041C0000FBECDBFFC0135813111B9C0C22E8B01AC
:1041D0007C01BE016F5F7F4FCA0117DC882309F4A1
:1041E000AEC0F801838D948DF701948F838FF80111
:1041F00016821782108611861286138614861586FB
:10420000D12CF80182859385A485B585438954898D
:104210006589768984179507A607B70708F03DC01A
:1042200025E0B695A795979587952A95D1F7F82F0C
:10423000FF70BF2EC80174DD009709F480C0FC0137
:1042400020812223A1F0253E09F47BC04BE050E001
:10425000BC01CE0101960E946132892B91F68C2D12
:104260008073803309F46BC04C2D6B2D65C0D11069
:1042700012C0F701B28A409121025091220260914E
:1042800023027091240246875787608B718BFC0153
:104290008081811159C0DD24D3948C2D82718231AB
:1042A00009F04DC0DD2039F061E0C70196DB8C01DB
:1042B000892B71F444C0F8018581823009F43FC034
:1042C000C8012DDB8823D9F1F701128A09E517E02F
:1042D00080E2F80111928A95E9F78BE0FE013196B0
:1042E000D80101900D928A95E1F7E0915007F09185
:1042F0005107309739F0B801625F7F4FC80140968F
:10430000199509C081E298E2F801918B808B80E0D9
:1043100098E097878687F80180899189938B828BB3
:10432000918F808F86859785978B868BCAD18823BE
:1043300031F04C2DF7016289C701CDDE08C080E065
:1043400006C0DD2009F495CFDD24D3945ACF2B96F7
:104350000FB6F894DEBF0FBECDBFDF91CF911F9196
:104360000F91FF90EF90DF90CF90BF9008952F9224
:104370003F924F925F926F927F928F929F92AF92F5
:10438000BF92CF92DF92EF92FF920F931F93CF9342
:10439000DF9300D01F92CDB7DEB78C016B011A01FD
:1043A000DC0115968C9115978130C1F414968C918F
:1043B00081FF14C082FF1CC0F801438954896589BC
:1043C000768982859385A485B58584179507A60788
:1043D000B70771F0C801ECDC81110AC081E090E000
:1043E000D80113969C938E93129780E090E042C17F
:1043F000410182C05B968D919C915C97FC01748019
:104400002FEF270D2A013B0139E0769467945794EA
:1044100047943A95D1F7722E74207A01F1E0FF2289
:10442000772009F475C080E092E08E199F0954014D
:104430008815990508F45C01D8015B962D913C9193
:104440005C9716968D919D910D90BC91A02D029731
:10445000A109B109F901058404C0880F991FAA1F99
:10446000BB1F0A94D2F74685578560897189840FEE
:10447000951FA61FB71F9C01AD01270D311D411DC2
:10448000511D29013A01A11432E0B30609F085C09B
:104490008091210290912202A0912302B0912402E6
:1044A000481659066A067B0659F48FEF9FEFDC0128
:1044B0008093210290932202A0932302B0932402BE
:1044C0009601B301A2018091570790915807B3D983
:1044D000882309F483CF9EEFD91A8A189B08F80124
:1044E00082859385A485B5858A0D9B1DA11DB11D6F
:1044F00082879387A487B587D8011A964D915D91DD
:104500006D917C911D978114910409F073CF83C044
:10451000E114F10409F087CF16964D915D916D91EC
:104520007C911997411551056105710559F457960C
:104530008D919D910D90BC91A02D0097A105B10585
:1045400031F520C09E012F5F3F4F50D1882309F4E1
:104550004DCF89819A81AB81BC81F801238D348D47
:10456000F9012789203129F048EF5FEF6FEF7FE0F5
:1045700004C048EF5FEF60E070E084179507A6077E
:10458000B70728F0C801A4D981114DCF27CFF80172
:1045900086839783A087B18746CFE114F10421F584
:1045A000D8011A964D915D916D917C911D9753960E
:1045B0008D919D910D90BC91A02D481759076A07C8
:1045C0007B0790F07ED0882309F408CF4092210227
:1045D0005092220260922302709224028091560728
:1045E00081608093560707C041E0C301B201A2D0A9
:1045F000882309F4F3CED601F701E75AF84F9F015B
:104600002A0D3B1D2E173F0719F08D918193FACF8C
:10461000CA0CDB1C62CFD8015396CD90DD90ED9093
:10462000FC90569714968C91C416D506E606F706AC
:1046300040F4F801438B548B658B768B80688483C0
:104640000DC02091500730915107232B39F02114D0
:10465000310421F08068D80114968C93F80184818C
:1046600083FD02C0C10106C0C80138DC882309F4FB
:10467000B5CEF8CF0F900F900F900F90DF91CF91A4
:104680001F910F91FF90EF90DF90CF90BF90AF9070
:104690009F908F907F906F905F904F903F902F9062
:1046A0000895CF93DF931F92CDB7DEB7698341E0C2
:1046B00050E0BE016F5F7F4F5ADE0F90DF91CF91C8
:1046C000089580915607882399F1409121025091D5
:1046D0002202609123027091240229E537E0809143
:1046E000570790915807A7D8811102C080E008951C
:1046F00040915207509153076091540770915507AC
:10470000411551056105710589F029E537E0809172
:104710005707909158078FD8882341F3109252077A
:104720001092530710925407109255071092560793
:1047300081E00895CF92DF92EF92FF92CF936B01C9
:104740007C01C42F8091210290912202A09123022A
:10475000B09124028C159D05AE05BF05C1F0B1DFF7
:10476000811102C080E019C029E537E0B701A60138
:10477000809157079091580725D8882399F3C092C4
:104780002102D0922202E0922302F0922402809130
:104790005607C82BC093560781E0CF91FF90EF904A
:1047A000DF90CF900895CF92DF92EF92FF926B014E
:1047B0007C0187DF8823A9F0E9E5F7E0119289E021
:1047C000E935F807D9F7C0922102D0922202E0928F
:1047D0002302F0922402809156078160809356074D
:1047E00081E0FF90EF90DF90CF9008958F929F929D
:1047F000AF92BF92CF92DF92EF92FF920F931F93EF
:10480000CF93DF93FC0181859285A385B4850196C2
:10481000A11DB11D84179507A607B70710F480E006
:104820005AC083889488A588B6888789803129F4FE
:10483000BB27A72F962F852F09C0DB01CA01C7E030
:10484000B695A79597958795CA95D1F7E9016A011D
:104850007B018F01BC01CD01680D791D8A1D9B1D57
:104860008090210290902202A0902302B090240216
:10487000681579058A059B0591F4F80187898031CF
:1048800099F4DD24EE24FF24C601880F991FFC0152
:10489000E75AF84F80819181A0E0B0E017C040E076
:1048A00049DF8111EACFBBCFE894C7F8DD24EE24BD
:1048B000FF24C601880F991F880F991FFC01E75A32
:1048C000F84F80819181A281B381BF7088839983E1
:1048D000AA83BB8381E0DF91CF911F910F91FF905D
:1048E000EF90DF90CF90BF90AF909F908F90089502
:1048F0004F925F926F927F92AF92BF92CF92DF9270
:10490000EF92FF920F931F93CF93DF9300D01F92EC
:10491000CDB7DEB78C0149835A836B837C83590101
:10492000C12CD12C7601412C82E0582E612C712CA7
:1049300049815A816B817C819E012F5F3F4FC80165
:1049400055DF882351F1D301C201F801058404C069
:10495000880F991FAA1FBB1F0A94D2F7C80ED91E31
:10496000EA1EFB1E49815A816B817C8187898031D7
:1049700029F088EF9FEFAFEFBFE004C088EF9FEF13
:10498000A0E0B0E0481759076A077B0788F2F501F5
:10499000C082D182E282F38281E00F900F900F906B
:1049A0000F90DF91CF911F910F91FF90EF90DF90CB
:1049B000CF90BF90AF907F906F905F904F90089591
:1049C0004F925F926F927F928F929F92AF92BF921F
:1049D000CF92DF92EF92FF920F931F93CF93DF93CB
:1049E000EC01423051056105710510F480E077C09B
:1049F00089859A85AB85BC850196A11DB11D84175B
:104A00009507A607B70790F3CB88DC88ED88FE886A
:104A10008F89803129F4BB27A72F962F852F09C0B6
:104A2000DB01CA01E7E0B695A79597958795EA95CA
:104A3000D1F7480159012A013B01C80ED91EEA1ECF
:104A4000FB1E8091210290912202A0912302B0913D
:104A50002402C816D906EA06FB0681F48F89803144
:104A6000A1F4B301A201552766277727440F551FEC
:104A7000FA01E75AF84F9182808218C040E0C701DE
:104A8000B60158DE8111EACFB1CFB301A2014F7751
:104A9000552766277727440F551F440F551FFA01E6
:104AA000E75AF84F80829182A282B38280915607A2
:104AB0008160809356078A89823080F08D819E8143
:104AC000AF81B885C80ED91EEA1EFB1EC0925207E0
:104AD000D0925307E0925407F092550781E0DF919E
:104AE000CF911F910F91FF90EF90DF90CF90BF90EB
:104AF000AF909F908F907F906F905F904F900895B0
:104B00002F923F924F925F926F927F929F92AF92BD
:104B1000BF92CF92DF92EF92FF920F931F93CF93AA
:104B2000DF93CDB7DEB760970FB6F894DEBF0FBE48
:104B3000CDBF5C0149875A876B877C871901D901F2
:104B4000CD90DD90ED90FC90C114D104E104F1040E
:104B500031F0BFEFCB1ADB0AEB0AFB0A10C0FC01F5
:104B6000C080D180E280F3809924939409851A85CE
:104B70002B853C85013011052105310509F0912C6B
:104B8000F50181859285A385B4858C019D010F5F18
:104B90001F4F2F4F3F4F0D871E872F87388B2601C2
:104BA00037011D821E821F821886F501818592853C
:104BB000A385B4850D811E812F81388508171907BB
:104BC0002A073B0708F054C02D853E854F8558893C
:104BD000241535054605570550F482E0482E512C22
:104BE000612C712C92E0C92ED12CE12CF12C9E016C
:104BF0002F5F3F4FB301A201C501F8DD8823C1F14A
:104C000049815A816B817C81D301C2010196A11D2A
:104C1000B11D452B462B472B19F06C017D010FC0B0
:104C2000AC01BD014C195D096E097F0909851A8522
:104C30002B853C85041715072607370779F02D814A
:104C40003E814F8158852F5F3F4F4F4F5F4F2D83E0
:104C50003E834F8358872C013D01A7CF0FEF1FEFF5
:104C60002FEF3FE0B301A201C501AADE811117C0F9
:104C700080E03FC0D301C2010197A109B1098D8332
:104C80009E83AF83B88793018201AC01BD01C5014A
:104C900097DE882369F34D805E806F807884C4142A
:104CA000D504E604F70430F3D1014D915D916D9187
:104CB0007C91411551056105710599F4F101C0829E
:104CC000D182E282F382992099F0FFEFCF1ADF0AB6
:104CD000EF0AFF0AD501CD92DD92ED92FC92139777
:104CE00007C097018601C5016BDE8111E7CFC0CFF8
:104CF00081E060960FB6F894DEBF0FBECDBFDF91A6
:104D0000CF911F910F91FF90EF90DF90CF90BF90C8
:104D1000AF909F907F906F905F904F903F902F90BB
:104D20000895AF92BF92CF92DF92EF92FF920F93CE
:104D30001F93CF93DF9300D01F92CDB7DEB75C01F6
:104D40006A017B0182E090E0A0E0B0E0F5018083A1
:104D50009183A283B3839E012F5F3F4FB701A601CA
:104D6000C50144DD882309F100E010E09801B70196
:104D7000A601C50125DE8823C1F0C980DA80EB8059
:104D8000FC80F5018789803129F088EF9FEFAFEF34
:104D9000BFE004C088EF9FEFA0E0B0E0C816D906DE
:104DA000EA06FB06C0F281E001C080E00F900F90A0
:104DB0000F900F90DF91CF911F910F91FF90EF9087
:104DC000DF90CF90BF90AF9008958F929F92AF9257
:104DD000BF92CF92DF92EF92FF920F931F93CF93E8
:104DE000DF93EC01142F7093580760935707442307
:104DF00061F1453010F080E0F0C040E060E070E02C
:104E0000CB0198DC8823B9F320E1129FA001112483
:104E1000475B584FFA01E254FE4F80818F7759F774
:104E20003C9680819181A281B38184369105A10550
:104E3000B10508F33497C080D180E280F380C114BB
:104E4000D104E104F10421F4D6CFC12CD12C760198
:104E500040E0C701B6016EDC882369F280916407E7
:104E6000909165078115924031F6909169079923D9
:104E700009F4C1CF2091670730916807232B09F40B
:104E8000BACF80916607882309F4B5CF9A8B8C83BB
:104E90001D8690E041E050E02D85E22FBA01022E00
:104EA00002C0660F771F0A94E2F78617970731F062
:104EB00031E0320F3D87283078F39DCF20916F0786
:104EC000309170072115310519F040E050E008C01D
:104ED00020917D0730917E0740917F075091800798
:104EE0002D833E834F835887809167079091680791
:104EF00046015701880E991EA11CB11C8B8A9C8A01
:104F0000AD8ABE8A00916A0710916B07198F088FCE
:104F1000A0916907B0E00E94A62F860E971EA81EDA
:104F2000B91E8A8E9B8EAC8EBD8E85E0000F111F40
:104F30008A95E1F701501E4F012F11270695800E2B
:104F4000911EA11CB11C8E869F86A88AB98A2091C9
:104F50006C0730916D072115310521F0A90160E042
:104F600070E008C04091790750917A0760917B0703
:104F700070917C07D701C60188199909AA09BB0954
:104F8000840F951FA61FB71F04C0B695A7959795C8
:104F90008795EA95D2F789879A87AB87BC87853F43
:104FA0002FE09207A105B10510F48CE014C0853FF5
:104FB0009F4FA105B10510F480E10DC080918507D8
:104FC00090918607A0918707B09188078A8F9B8F61
:104FD000AC8FBD8F80E28F8B81E0DF91CF911F91ED
:104FE0000F91FF90EF90DF90CF90BF90AF909F9088
:104FF0008F900895CF92DF92EF92FF920F931F93BD
:10500000CF93DF937B016A01082F10E0E801C65AB5
:10501000D64F888187FF04C0FB011182108224C013
:105020008CE0809F9001819F300D11248881A9011F
:10503000480F511D87FD5A958091590990E04817F6
:10504000590794F48881A901480F511D87FD5A958D
:10505000CA01FA01EE0FFF1F8E0F9F1FFC01E25ADB
:10506000F64F808186FD19C088818F5F88838CE030
:10507000809F9001819F300D11248881A901480FE4
:10508000511D87FD5A958091590990E0481759079D
:10509000BCF488818C3044F113C08881280F311D05
:1050A00087FD3A95F901EE0FFF1F2E0F3F1FF90103
:1050B000E25AF64F808160E08F730E94BD12D4CF18
:1050C000F70180819181049680349C4918F480E432
:1050D0009CE904C0F701808191810496F6019183D7
:1050E00080838FEF888345C0F7014081518188819B
:1050F000B901680F711D87FD7A95CB01FB01EE0F99
:10510000FF1F8E0F9F1FFC01E25AF64F8181928193
:10511000840F951FF601918380838881A901480F30
:10512000511D87FD5A95CA01FA01EE0FFF1F8E0F20
:105130009F1FFC01E25AF64F808186FF1AC08881CA
:10514000280F311D87FD3A95F901EE0FFF1F2E0F35
:105150003F1FF901E25AF64F808161E08F73DF91C2
:10516000CF911F910F91FF90EF90DF90CF900C9413
:10517000BD12DF91CF911F910F91FF90EF90DF90C3
:10518000CF9008951F920F920FB60F9211240BB675
:105190000F922F933F934F935F936F937F938F93D0
:1051A0009F93AF93BF93EF93FF9348E850E064E879
:1051B00070E081E01FDFFF91EF91BF91AF919F9170
:1051C0008F917F916F915F914F913F912F910F90B0
:1051D0000BBE0F900FBE0F901F9018951F920F924D
:1051E0000FB60F9211240BB60F922F933F934F934C
:1051F0005F936F937F938F939F93AF93BF93EF933F
:10520000FF9348E950E064E970E082E0F3DEFF914B
:10521000EF91BF91AF919F918F917F916F915F912E
:105220004F913F912F910F900BBE0F900FBE0F909B
:105230001F9018951F920F920FB60F9211240BB664
:105240000F922F933F934F935F936F937F938F931F
:105250009F93AF93BF93EF93FF9348EA50E064EAC4
:1052600070E083E0C7DEFF91EF91BF91AF919F9116
:105270008F917F916F915F914F913F912F910F90FF
:105280000BBE0F900FBE0F901F9018951F920F929C
:105290000FB60F9211240BB60F922F933F934F939B
:1052A0005F936F937F938F939F93AF93BF93EF938E
:1052B000FF9348E251E064E271E080E09BDEFF9101
:1052C000EF91BF91AF919F918F917F916F915F917E
:1052D0004F913F912F910F900BBE0F900FBE0F90EB
:1052E0001F901895FC01909159099033A0F481E02A
:1052F000890F809359099083892F90E0FC01EE0F6C
:10530000FF1F8E0F9F1FFC01E25AF64F88EB9BE0B8
:105310009283818308958FEF80830895DF92EF92C7
:10532000FF920F931F93CF93DF93EC01D62E7A0158
:1053300089018881803308F067C061E08D2D0E946B
:1053400081128881E82FF0E09F01220F331FE20FC6
:10535000F31FE25AF64F9D2D9F732081207CD22EA1
:10536000D92AD08220E232E02E193F0937FF02C04D
:105370002D5F3F4F3595279535952795298320E655
:1053800039E0201B310B37FF02C02D5F3F4F3595B1
:105390002795359527952A832CE0622F63D5289F82
:1053A000B001112440E050E09B01240F351FF901AA
:1053B000EE0FFF1F2E0F3F1FF901E25AF64F9081AB
:1053C00096FD16C04F5F5F4F4C30510569F7813035
:1053D00021F51092800082E0809381001092850078
:1053E00010928400B19A80916F00826080936F0068
:1053F000E881F0E0CF01880F991FE80FF91FE25A0A
:10540000F64F8081806480838881DF91CF911F91E6
:105410000F91FF90EF90DF900895823061F4109229
:10542000900080939100109295001092940088BB98
:1054300080937100DDCF833069F41092A00082E088
:105440008093A1001092A5001092A40089BB8093C4
:105450007200CECF8111CCCF1092200182E08093D8
:10546000210110922501109224018ABB80937300C0
:10547000BFCF20E639E040E252E050CFFC019081FE
:10548000903388F5818128E830E0281B310987FDB9
:105490003395220F331F220F331F6217730784F0D7
:1054A000828148E552E0481B510987FD5395440F1E
:1054B000551F440F551F9B01461757070CF49A01BF
:1054C00022503109220F331F4FB7F894892F90E0F3
:1054D000FC01EE0FFF1F8E0F9F1FFC01E25AF64FDB
:1054E000328321834FBF0895AF92BF92CF92DF9254
:1054F000EF92FF920F931F93CF93DF93EC016032F3
:1055000082E078070CF03FC077FD06C0653B71056F
:105510002CF064EB70E002C060E070E0898128E864
:1055200030E05901A81AB10887FDB394AA0CBB1C3E
:10553000AA0CBB1C0B2C000CCC08DD08072E000CA1
:10554000880B990B2A8108E512E0021B110927FD3F
:105550001395000F111F000F111F012E000C220BBD
:10556000330B3F932F931F930F9314EBE12EF12CEA
:1055700000E010E020E030E0A9010E9458130F90F5
:105580000F900F900F90CE01DF91CF911F910F914F
:10559000FF90EF90DF90CF90BF90AF906FCFCF9301
:1055A000CFB7F8948091F109811127C0E9E4F2E0C6
:1055B0008491E3E0F2E09491E82FF0E0EE0FFF1F1A
:1055C000E257FD4FA591B491EC91E92321F461E0FC
:1055D00085E30E94BD1261E085E30E9481128CB5D3
:1055E00080618CBD8CB580648CBD61E084E30E94D9
:1055F000811261E083E30E9481128091F1098F5F43
:105600008093F109CFBFCF91089520910E0A30E029
:10561000220F331FF901E85CFD4F0190F081E02D6E
:10562000DC0115968D919C91169791838083F901E9
:10563000E05BFD4F0190F081E02D82EB8083E091F3
:105640000E0AF0E0EE0FFF1FE85BFD4F0190F081C6
:10565000E02D89E180830895CF93DF93FB012281C0
:105660003381DC0113963C932E931297448155812C
:105670006681778114964D935D936D937C93179714
:10568000408551856285738518964D935D936D9322
:105690007C931B971C96EF012C969C01275E3F4F35
:1056A00049914D93A217B307D9F7218D328DFC0193
:1056B000328F218FDF91CF91089582EF99E00C9482
:1056C000F01682EF99E00E945B17882311F081E0C9
:1056D00008950895AF92BF92DF92EF92FF920F93D9
:1056E0001F93CF93DF93CDB7DEB76B970FB6F894C8
:1056F000DEBF0FBECDBF8C01AB0121E064E077E0DF
:10570000CE0101960E948F18BE016F5F7F4F82EF1E
:1057100099E0A2DFC801D5DFD82E882309F44EC056
:1057200048E050E060E070E0C801C7DF80916002AF
:1057300090916102A0916202B091630289839A8381
:10574000AB83BC83CE0101967C015E0195E0A90E7E
:10575000B11C82EF99E00E946D16F70121917F0143
:1057600030E08217930719F4EA15FB0591F748E139
:1057700050E060E070E0C801A0DF82EF99E00E9495
:105780006D16F8019483838382EF99E00E946D1671
:1057900020E030E0382FF80183819481282B392BC9
:1057A000348323834CE250E060E070E0C80185DF81
:1057B0008EEF90E09093110C8093100C8D2D6B96D2
:1057C0000FB6F894DEBF0FBECDBFDF91CF911F9112
:1057D0000F91FF90EF90DF90BF90AF9008951092DF
:1057E0000E0CE0910E0AF0E0EE0FFF1FE85AFD4F9D
:1057F0000190F081E02D20812E7D208362DF8823BF
:1058000021F082EF99E00C94491708956450609359
:105810000F0A08951F920F920FB60F9211240BB624
:105820000F922F933F934F935F936F937F938F9339
:105830009F93AF93BF93EF93FF93E0910F0C81E0A1
:10584000E827F0E0EA5DFD4F9081992309F466C0F6
:1058500090910F0C892780930D0CE0910E0AF0E0D7
:10586000EE0FFF1FE85AFD4F0190F081E02D80817F
:105870008F7D8083789482EF99E00E941C1720919D
:10588000100C3091110C2817390738F1809125023E
:1058900083FF09C04CE250E060E070E082EF99E0E5
:1058A0000E94F0162EC0E0910E0AF0E0EE0FFF1FEE
:1058B000E85AFD4F0190F081E02D80818E7D80833C
:1058C00082EF99E00E945B17882321F082EF99E034
:1058D0000E94491710920E0C21C060910D0C8EEFA2
:1058E000689FB00111246F5E754F4EEF50E082EF5C
:1058F00099E00E94E716E0910D0CF0E0EA5DFD4FA3
:105900001082E0910E0AF0E0EE0FFF1FE85AFD4F03
:105910000190F081E02D808180628083FF91EF9182
:10592000BF91AF919F918F917F916F915F914F91B7
:105930003F912F910F900BBE0F900FBE0F901F90B5
:1059400018951F920F920FB60F9211240BB60F925B
:105950008F939F93AF93BF93CF93DF93EF93FF9377
:105960008091250286FD41C080910E0A90E0880F4B
:10597000991FFC01E05CFD4FA081B181FC01E85D55
:10598000FD4FC081D181E0910F0C8091100A9EEFF4
:10599000E99FF0011124EF5EF54FE80FF11D8081C2
:1059A00090E000900F0A02C0880F991F0A94E2F756
:1059B0009983888311969C938E938091100A8F5FB0
:1059C0008093100A8091100A8E3FD0F01092100A36
:1059D000E0910F0CF0E0EA5DFD4F81E08083909153
:1059E0000F0C892780930F0C0BC090910D0A81E05A
:1059F000892780930D0A80910D0A882309F4B4CF7A
:105A0000FF91EF91DF91CF91BF91AF919F918F91D6
:105A10000F900BBE0F900FBE0F901F9018954F92D6
:105A20005F926F927F928F929F92AF92BF92CF922E
:105A3000DF92EF92FF920F931F93CF93DF93EC01CE
:105A400010920E0CE0910E0AF0E0EE0FFF1FE85AE4
:105A5000FD4F0190F081E02D80818E7D8083CE010D
:105A600030DE882321F082EF99E00E94491780916F
:105A70000E0A90E0880F991FFC01E05BFD4F00814A
:105A80001181D8012C9127FF51C0FC01E05CFD4F32
:105A9000E080F180F701608171819B01AB01DC0145
:105AA000A85DBD4F3D01FC01E05DFD4F4F01ED8163
:105AB000FE81D901A61BB70BAE17BF07B8F5D301FE
:105AC000CD90DC9037FD05C02E173F0720F4F9017B
:105AD00002C0E0E0F0E0D6011196FC93EE9357FD92
